:02000004080AE8
:1000000000000A088C1A0A08000006000600050114
:080010000402DB070000000000
:0400180030180A088A
:10001C0009480A4908B5884205D0094A824202D0EB
:10002C00121A01F0A1FB0748074A0021121A01F02D
:10003C00A9FB064808BD00BF00000020F4190A08FF
:10004C0070000020700000205C0500205C05002082
:10005C0070B501F059FA0025054E064CA41BA408F6
:10006C00A54200D170BD56F8043B98470135F7E71F
:10007C00D0190A08F0190A0800F044B808B500F0C5
:10008C00FBF8BDE8084001F001BA00F0ADBA00F091
:10009C00ABBA00F0B1BA0078B0FA80F04009704702
:1000AC00012303707047000008B501F0A3F8BDE808
:1000BC000840014900F0D2BE44180A0813B50446A2
:1000CC00044B1B788DF800303C2300F01BFC2046C1
:1000DC0002B010BD7400002038B501F08BF8084B4D
:1000EC0005461C68002C09DA2D2100F0BBFE61428C
:1000FC002846BDE838400A2200F0B7BE2146F7E793
:10010C007C00002037B500240E4B0121188801F02B
:10011C007BFA0D4B0D4D1888002101F075FA234622
:10012C0022460B49019400950A4800F0FDF923463C
:10013C002246CDE900540849084800F0F5F903B00F
:10014C0030BD00BF040000207800002061180A08B0
:10015C00B5000A0854180A08E5000A087A180A08B3
:10016C0008B5034B188801F079FA024B186008BDEA
:10017C00780000208000002008B500F0A7F8034BA1
:10018C001B68181A18BF012008BD00BF0000002012
:10019C0038B5046805467CB16368013B63605BB9A4
:1001AC00236820469B689847A368013BA3601BB952
:1001BC0023682046DB689847284638BD70B5284B25
:1001CC0086B01C68012C3ED1264E274D3368214643
:1001DC000A332888336001F028FA4FF47A7000F063
:1001EC0033FA0021288801F020FA4FF47A7000F0DD
:1001FC002BFA2146288801F018FA4FF47A7000F097
:10020C0023FA0021288801F010FA4FF47A7000F0DC
:10021C001BFA164A164902A8FFF750FF03A8FFF76E
:10022C00B7FF0A22316802A800F0BAFE6846029AAB
:10023C001049FFF743FF01A8FFF7AAFF02A800F03F
:10024C0054FE06B070BD002CFBD1064B1A68002A78
:10025C00C8BFA2F10A0421460A221C60E3E700BFD2
:10026C00800000207C0000200400002044180A08B4
:10027C007A180A0854180A0808B5FFF77DFF28B148
:10028C00FFF76EFFBDE80840FFF798BF08BD000000
:10029C000022014B1A7070477400002008B5024B05
:1002AC001B685B6C019308BDD001060808B5024BB6
:1002BC001B689B6C019308BDD001060808B5024B66
:1002CC001B685B68019308BD9C01060808B5024BCE
:1002DC001B685B69019308BD9C01060808B5024BBD
:1002EC001B689B68019308BDB001060808B5024B5A
:1002FC001B68DB68019308BDB001060808B5024B0A
:10030C001B681B69019308BDB001060808B5024BB8
:10031C001B685B69019308BDB001060808B5024B68
:10032C001B681B6E019308BDAC01060808B5024B97
:10033C001B685B6E019308BDAC01060808B5024B47
:10034C001B689B6E019308BDAC01060808B5024BF7
:10035C001B68DB6E019308BDAC01060808B5024BA7
:10036C001B681B6F019308BDAC01060808B5024B56
:10037C001B685B6F019308BDAC01060808B5034B05
:10038C001B68D3F88030019308BD0000AC0106084F
:10039C0008B5024B1B68DB69019308BDB401060864
:1003AC0008B5024B1B681B6A019308BDB401060813
:1003BC0008B5024B1B689B69019308BDC401060874
:1003CC0008B5024B1B685B6A019308BDC4010608A3
:1003DC0008B5024B1B689B6A019308BDC401060853
:1003EC0008B5024B1B68DB6A019308BDC401060803
:1003FC0008B5024B1B681B6B019308BDC4010608B2
:10040C0008B5024B1B685B6B019308BDC401060861
:10041C0008B5024B1B689B6B019308BDC401060811
:10042C0008B5024B1B681B6C019308BDC401060880
:10043C0008B5024B1B681B68019308BDD801060860
:10044C0008B5024B1B681B69019308BDD80106084F
:10045C0008B5024B1B685B69019308BDD8010608FF
:10046C0008B5024B1B689B69019308BDD8010608AF
:10047C0008B5024B1B68DB69019308BDD80106085F
:10048C0008B5024B1B681B6A019308BDD80106080E
:10049C0008B5024B1B689B6C019308BDC001060894
:1004AC0008B5024B1B685B68019308BDA4010608E4
:1004BC0008B5024B1B685B69019308BDA4010608D3
:1004CC0008B5024B1B68DB6C019308BDA401060840
:1004DC0008B5024B1B685B6D019308BDA4010608AF
:1004EC0008B5034B1B68D3F89030019308BD00008E
:1004FC00A401060808B5034B1B68D3F89C30019384
:10050C0008BD0000A401060808B5024B1B685B6916
:10051C00019308BDCC01060808B5024B1B681B6A89
:10052C00019308BDCC01060808B5024B1B685B6A39
:10053C00019308BDCC01060808B5024B1B68DB6BA8
:10054C00019308BDCC01060808B5024B1B685B681B
:10055C00019308BDC801060808B5024B1B689B68CF
:10056C00019308BDC801060808B5024B1B68DB687F
:10057C00019308BDC801060808B5024B1B681B692E
:10058C00019308BDC801060808B5024B1B685B69DE
:10059C00019308BDC801060808B5024B1B689B698E
:1005AC00019308BDC801060808B5024B1B68DB693E
:1005BC00019308BDC801060808B5024B1B681B6AED
:1005CC00019308BDC801060808B5024B1B681B6BDC
:1005DC00019308BDC801060808B5024B1B685B6B8C
:1005EC00019308BDC801060808B5024B1B681B68BF
:1005FC00019308BDA001060808B5024B1B685B6897
:10060C00019308BDA001060808B5024B1B689B6846
:10061C00019308BDA001060808B5024B1B68DB6AF4
:10062C00019308BDA001060808B5024B1B681B6BA3
:10063C00019308BDA001060808B5024B1B685B6C52
:10064C00019308BDA00106080021FFF731BF10B5CA
:10065C00836804460BB901F076F8C3689847A36821
:10066C001BB103222146204698472046BDE8104086
:10067C00102101F064B870470020704710B5044693
:10068C00102101F05CF8204610BD08B5FFF7F6FF0D
:10069C0008BD10B58368044613B103220146984780
:1006AC00204610BD002230B54FF69C740260848049
:1006BC008D888C800C68858004600A6030BD10B514
:1006CC0004460068FFF798FF204610BD38B5C46893
:1006DC00F4B12378022B03D104F10C00FFF7EFFFE8
:1006EC00656835B12846FFF7D4FF1021284601F084
:1006FC0026F8A56835B12846FFF7CBFF1021284610
:10070C0001F01DF82046BDE83840142101F017B85F
:10071C0038BD0B68036013B15A6801325A607047D8
:10072C0073B50E46044656F8043B0D4601A83146F7
:10073C000093FFF7EEFF009B019A23600023626099
:10074C0001A801930093FFF723FD3046FFF720FD2E
:10075C002846082100F0F3FF204602B070BD13B507
:10076C006C460B46024603C884E8030093E803007A
:10077C0082E8030094E8030083E8030002B010BD94
:10078C00826810B50AB900F0DEFFC368BDE81040FE
:10079C00184708B5006800F11001FFF7F1FF08BD1C
:1007AC00826810B50AB900F0CEFFC368BDE81040EE
:1007BC00184708B5006800F11001FFF7F1FF08BDFC
:1007CC0038B500230446036010200D46FFF75DFC8E
:1007DC0028B10123C0E90133024BC56003602060DE
:1007EC00204638BD94180A0838B5002383608B68FE
:1007FC0004460D462BB102229847EB68E360AB68C8
:10080C00A360204638BD0000F0B589B00468684686
:10081C00FFF748FF4FF00203D4E84F2F002A03D113
:10082C00C4E8413F0029F7D125D104F10C056946F4
:10083C002846FFF737FF0123BFF35B8F637000205F
:10084C00BFF35B8F04F1080353E8006F43E8000229
:10085C00002AF9D1BFF35B8F6EB1FFF731FE78B18F
:10086C0029463046FFF78CFF3046FFF712FF102168
:10087C00304600F064FF6846FFF721FF09B0F0BD79
:10088C00314602A8FFF7B0FFE068B4F9105008B188
:10089C0000F0A4FF06901020ADF81C50FFF7F5FBFC
:1008AC000546E8B1002787601820FFF7EEFB0446E9
:1008BC0088B10146876002A8FFF751FF049BA2682C
:1008CC00A360059B0492E26806A9E36004F11000A2
:1008DC000592FFF7E7FE084B2C60EB60074BAB6013
:1008EC0006A8FFF7ECFE02A8FFF7D3FE002229466C
:1008FC000348FFF7EDFDB7E79F070A08350A0A081A
:10090C005B060A082DE9F0478AB005460C461746E7
:10091C0098469DF84890FFF7F7FD07AE824638BB26
:10092C004FF62E73059005A93046ADF81830FFF739
:10093C00B9FE1420FFF7A9FB044648B1022303704B
:10094C000123C0E901AA437031460C30FFF7AAFE1F
:10095C002846214640F8044BFFF732FF3046FFF79C
:10096C00AEFE05A8FFF7ABFE28460AB0BDE8F0873F
:10097C000C234FF0000A1420CDE908AA0793FFF7C7
:10098C0084FB014628B1C0E901AA80F800A080F8D8
:10099C0001A004A80391FFF713FF224B0820089332
:1009AC00FFF773FB824628B1039B04A940F8043B74
:1009BC00FFF7AFFE42463946204600965FFA89F3B0
:1009CC00CDF824A0FFF7A8FDB8B9039B5B7803F022
:1009DC00FF0293B94FF69C7305A903A80592ADF8D5
:1009EC001830FFF711FF05A8FFF769FE05A8099954
:1009FC00FFF796FE06A8FFF7CBFB039B04A906A8FE
:100A0C000593FFF786FE059B069A2B6000236A6010
:100A1C0006A806930593FFF7BBFB04A8FFF7B8FBEA
:100A2C00A2E700BFF90A0A08022AF8B5054607D062
:100A3C00032A18D0012A01D10B6803600020F8BDED
:100A4C0018200E68FFF721FB044650B13146FFF722
:100A5C00CBFE3069B6F9147008B100F0BFFE20610E
:100A6C00A7822C60EAE70468002CE7D004F11000A0
:100A7C00FFF725FE2046FFF70CFE1821204600F05C
:100A8C005EFEDBE738B5002383608B6804460D46B9
:100A9C002BB102229847EB68E360AB68A360204659
:100AAC0038BD022A70B5044607D0032A12D0012A99
:100ABC0001D10B680360002070BD14200E68FFF795
:100ACC00E4FA054620B13146FFF7DCFF337C2B748A
:100ADC002560F0E70468002CEDD02046FFF7D9FD27
:100AEC001421204600F02BFEE5E70000F0B504468B
:100AFC0089B00D4601A81146FFF712FEA4B124B22D
:100B0C001DB1284600F06AFE054601A803A903950D
:100B1C00ADF81040FFF778FE03A8FFF7D0FD02A850
:100B2C00FFF736FB09B0F0BD0123019DD5E84F2F2F
:100B3C00002A03D1C5E8413F0029F7D1EFD12B732F
:100B4C00BFF35B8F6B70BFF35B8F2B1D53E8006F94
:100B5C0043E80042002AF9D1BFF35B8F002EDED0B0
:100B6C002046FFF7ADFC074660B1304605F10C019D
:100B7C00FFF716FE3046FFF78CFD1021304600F0D3
:100B8C00DEFDCCE7314603A8FFF77CFF2B7B102062
:100B9C008DF81C30FFF779FA0546D0B18760142028
:100BAC00FFF773FA044678B10146876003A8FFF794
:100BBC00D6FD059BA268A360069B0592E268E360E4
:100BCC009DF81C3006922374064B2C60EB60064B90
:100BDC00AB6003A8FFF75DFD002229460348FFF731
:100BEC0077FCC7E7BF070A08AF0A0A085B060A08C2
:100BFC007047F8B5064615460C468F18BC4206D011
:100C0C00336830469B6814F8011B9847F6E7284672
:100C1C00F8BD0022007CFFF781BB0021007CFFF7B0
:100C2C0085BB0021007CFFF789BB0021007CFFF70E
:100C3C008DBB0021007CFFF791BB10B5044614213D
:100C4C0000F07DFD204610BD10B54FF47A730446BC
:100C5C0008460021C4E90113034B1146236020749C
:100C6C00FFF78CFB204610BDB0180A08704710B572
:100C7C000446182100F063FD204610BDF8B50E4661
:100C8C00002400F10807051D17F8011D0A22304643
:100C9C0000F0EBF8AF42044401D12046F8BD002C23
:100CAC00F2D02E21304600F0DDF80444ECE70000D1
:100CBC0010B50446044B1122002140F8043B00F00F
:100CCC0061FD204610BD00BFD8180A080346074A2C
:100CDC0010B543F8042B01F1100251F8044B91426A
:100CEC0043F8044BF9D10A781A7010BDD8180A08C9
:100CFC00024AC0E90021042202757047D8180A087C
:100D0C0010B59DF8084044EA0324042344EA024445
:100D1C0044EA01644460037510BD000037B5044D0E
:100D2C0005609DF818500095FFF7EAFF03B030BD41
:100D3C00D8180A08014B024A1A6070478400002038
:100D4C00E4180A08002340681A46FFF7FDBB00228E
:100D5C0002214068FFF708BC002240681146FFF7EB
:100D6C00FBBB002240681146FFF706BC002340681D
:100D7C001A461946FFF708BC002340681A46194664
:100D8C00FFF70ABC0022406881F00101FFF70CBCA0
:100D9C0000224068FFF718BC002240681146FFF79C
:100DAC001BBC002240681146FFF706BC70B5154607
:100DBC008EB0044608A8FFF77BFF1122002103A880
:100DCC0000F0E0FC0026284600F023FD0A4B0096BC
:100DDC0081B25B68284603AAFFF75AFB30B1314653
:100DEC002046FFF785FF20460EB070BD204603A9B4
:100DFC00FFF76CFFF7E700BF08050020024B034A22
:100E0C001A6000225A60704788000020F0180A0807
:100E1C00F8B506460D4600248F18BD420CD0336839
:100E2C0030469B6815F8011B9847031E01DB1C44D8
:100E3C00F3E7002C08BF1C462046F8BD70B50546EC
:100E4C000C46084649B100F0E4FC2B6802462146EA
:100E5C002846BDE87040DB68184770BD08B5FFF741
:100E6C00EDFF08BD03689B6818470023012A98BF53
:100E7C000A2230B58BB00C468DF8243009A92546D2
:100E8C00B4FBF2F404FB1253DBB2092B94BF3033E6
:100E9C003733DBB2AA4201F8013DF0D9FFF7CEFFA0
:100EAC000BB030BD10B50446FFF7F3FB204610BD68
:100EBC0000230348034A0449836000F03BBC00BF95
:100ECC009000002070000020B10E0A0870B50026BA
:100EDC0004460D4640F8086FFFF7E0F928462570E8
:100EEC00FFF756FA2046666070BD10B504460068E0
:100EFC00FFF782FB204610BD10B50446006808B110
:100F0C00FFF77AFB0023C4E90133236010BD38B529
:100F1C0004460D4600680131FFF776FB10B1C4E9B9
:100F2C000005012038BD10B50368044623B14368A1
:100F3C008B4201D3012010BD2046FFF7E8FF0028AB
:100F4C00F9D0A368002BF5D122681370F2E770B5C5
:100F5C000E46114604461546FFF7E5FF20B920461C
:100F6C00FFF7CAFF204670BD2A4631462068A560AF
:100F7C0000F0FAFB00212268A368D154F2E738B5DF
:100F8C0005460C4649B1084600F043FC2146024692
:100F9C002846FFF7DCFF284638BDFFF7ADFFFAE720
:100FAC0010B5002304468AB0C4E90033A360237350
:100FBC00084601A900F01FFA204601A9FFF7DFFF40
:100FCC0020460AB010BD10B50446006818B1FFF7F2
:100FDC0013FB0023236010BD10B50446FFF7F3FF8D
:100FEC00204610BD0222002010B5084B084C1A6098
:100FFC00084B2060A080A071A360FFF751FA204637
:10100C00BDE81040044A054900F094BBAC00002038
:10101C00A00000200000FFFF70000020E50F0A0870
:10102C00024B1A68024B1A60704700BF0800002080
:10103C00B000002070474174704708B5007CFFF782
:10104C00EFF920EAE07008BD08B5007CFFF7C0F9A5
:10105C0020EAE07008BD08B5007CFFF7C9F940EA4A
:10106C00E07008BD08B5007CFFF7BAF940EAE07003
:10107C0008BD007CFFF7C4B970B5467C04460D462C
:10108C002EB12946207CBDE87040FFF799B9007C51
:10109C00FFF7C6F90028F4DC304670BD10B50446E5
:1010AC00142100F04CFB204610BD00004FF0000C4A
:1010BC0010B50446084611464FF47A72C4E901C2D1
:1010CC00044A20742260012262741A46FFF770F9F8
:1010DC00204610BD40190A0838B50D4D2978BFF3CC
:1010EC005B8F11F0010411D12846FEF7D4FF68B1D3
:1010FC002146084A084B0948FFF7D8FF2846FEF757
:10110C00CFFF074A0749054800F014FB034838BDD8
:10111C00B4000020B80000203C010020C0010020D9
:10112C007000002041100A0841747047704708B5E0
:10113C000021007CFFF794F940EAE07008BD08B587
:10114C000121007CFFF78CF940EAE07008BD08B57E
:10115C00007CFFF77DF920EAE07008BD08B5007C43
:10116C00FFF76EF920EAE07008BD38B50446007C44
:10117C000D46FFF76DF9002801DC607C28B129468B
:10118C00207CFFF775F920EAE07038BD007CFFF792
:10119C0077B910B50446142100F0D1FA204610BDE1
:1011AC0010B54FF47A73044608460021C4E90113C4
:1011BC00044B20742360012311466374FFF738F944
:1011CC00204610BD70190A0810B5044614220021DF
:1011DC0000F0D8FA054B20466360054BE36040F203
:1011EC00011323818123238210BD00BF0402002040
:1011FC000503002030B50F4D87B001A8FFF7E4FFC1
:10120C002978BFF35B8F11F0010410D12846FEF74B
:10121C0042FF60B1214601AA0748FFF7C1FF2846EB
:10122C00FEF73EFF054A0649034800F083FA0248E0
:10123C0007B030BDD4010020DC010020700000207C
:10124C0039110A0810B504461422002100F09AFA4C
:10125C00054B20466360054BE36040F2011323818C
:10126C008123238210BD00BF860300208704002049
:10127C0010B50F4C86B001A8FFF7E4FF2378BFF33D
:10128C005B8FDB0710D42046FEF705FF60B1012110
:10129C0001AA0848FFF784FF2046FEF701FF064A23
:1012AC000649044800F046FA024806B010BD00BFDB
:1012BC00D8010020F00100207000002039110A082C
:1012CC00002240681146FFF757B9F0B5154689B0B2
:1012DC0011220E460446002103A800F053FA2846BA
:1012EC0000F097FA002781B273682846009703AA8A
:1012FC00FFF7CEF830B139462046FFF7F9FC20460F
:10130C0009B0F0BD204603A9FFF7E0FCF7E7002287
:10131C0040681146FFF750B9002240681146FFF7AC
:10132C005BB900224068FFF74FB90022406881F09A
:10133C000101FFF739B9002340681A461946FFF737
:10134C002BB9002340681A461946FFF71DB9002235
:10135C0040681146FFF700B9002202214068FFF7F0
:10136C0003B9002340681A46FFF7EEB80422024B7B
:10137C005A60024A1A60704708050020A0190A0832
:10138C0010B5044600F045FA431E20462344834220
:10139C0006D90278197800F8011B03F80129F6E741
:1013AC0010BD70B50C46911E222922D8254668B175
:1013BC00B0FBF2F602FB1600C1B2092894BF303123
:1013CC005731C9B2304605F8011BF0E72A463021E7
:1013DC002344934202D902F8011BFAE75A1BAB4291
:1013EC0038BF002200232046AB54FFF7C9FF20462C
:1013FC0070BD0020FCE738B5031E0C4615460DDA0F
:10140C002D22B3F1004F0CBF1846584201230A702D
:10141C002A461944FFF7C5FF204638BD0123F9E7DA
:10142C00014B1860704700BF0C00002008B5134B2F
:10143C0043B1FFF7DFFE03681B699847002801DD05
:10144C00AFF300800E4B43B1FFF746FE03681B69F8
:10145C009847002801DDAFF300800A4B0BB1AFF3C6
:10146C000080094B43B1FFF703FF03681B699847E2
:10147C00002801DDAFF3008008BD00BF00000000B4
:10148C0000000000000000000000000008B5FFF79D
:10149C00CDFFFEF71BFF014B186008BD280500208F
:1014AC000248034A0349121A00F05EB90040024098
:1014BC0004400240F0190A08002307B51A466FF0E1
:1014CC0077010093FFF716F803B05DF804FB0000FA
:1014DC0007B543880A2B08D0502B0BD1094B1B683E
:1014EC004BB103B05DF804EB1847FFF7E5FF03B011
:1014FC005DF804FB00231A466FF077010093FEF7AA
:10150C00F9FFF4E71405002038B5124C00211248FD
:10151C00FFF792F8114D2368AB420CBF0122002259
:10152C000F4B1A7002D0FFF7BBFF2560FEF7C6FE0B
:10153C00044600F02FF90B4B13B12046AFF300809B
:10154C0000210848FEF7F8FFBDE8384000210648A6
:10155C00FEF7C6BF004002402D140A081E1C279A35
:10156C001005002000000000DD140A0810B5044628
:10157C00806808B1FEF79AFE204610BD172870B59A
:10158C00044601D9002070BDA0F10D03022B0BD92C
:10159C00012826D800F08EF80021007CFEF7E6FE2C
:1015AC0080F00100C0B2EEE7134E3178BFF35B8FD1
:1015BC0011F001050FD13046FEF76DFD58B12946EB
:1015CC000E48FFF783FC3046FEF76AFD0C4A0D49C6
:1015DC000A4800F0AFF8094B1878FEF7E1FE002836
:1015EC00D0D1123C012C05D8FFF776FD007CFEF71C
:1015FC000FFFD5E70120C6E7180500201C050020C9
:10160C007000002079150A08172838B504460D46D5
:10161C000AD8FF2908D0FFF7B1FF28B12946204688
:10162C00BDE83840FEF75ABE38BD38B504460D4605
:10163C00FEF75CFEFF2810D0062804D84D2323FAB1
:10164C0000F0C30709D42046FFF798FF28B12946BC
:10165C002046BDE83840FEF751BE38BD10B50446F3
:10166C00FEF744FE031FDBB2012B08D92046FFF71F
:10167C0085FF20B12046BDE81040FEF747BE002094
:10168C0010BD0000002370B5202543801423084EA4
:10169C0004460380314685600561284600F051F808
:1016AC0031466060284600F04CF8E060204670BD82
:1016BC00CC190A0830B50F4D87B02978BFF35B8F72
:1016CC0011F0010413D12846FEF7E5FC78B101A80E
:1016DC00FFF7D8FF214601AA0748FFF7B5FA2846BD
:1016EC00FEF7DEFC054A0649034800F023F80248E1
:1016FC0007B030BD2C050020300500207000002004
:10170C00FD0B0A08002313B5074C1A461946204650
:10171C000093FFF703FB2046044A054902B0BDE8DD
:10172C00104000F007B800BF4405002070000020F6
:10173C00790C0A080B460146184600F007B8FEF76C
:10174C00A8BCFEF7A4BC08B5FEF766FF10B50446AE
:10175C000448134620B10A4602202146AFF300800C
:10176C0010BD00BF000000000A44914200F1FF339D
:10177C0000D1704710B511F8014B914203F8014F9D
:10178C00F9D110BD03460244934200D1704703F8CF
:10179C00011BF9E738B50D4B04461D68AB6B7BB9E3
:1017AC001820FEF721FF0A4A0A4BA863C0E9002360
:1017BC00094B012283600B2383810023C0E904239E
:1017CC000022AB6B1C615A6138BD00BF0C000020BD
:1017DC000E33CDAB34126DE6ECDE0500024B014648
:1017EC00186800F003B800BF0C00002070B5044668
:1017FC0008460D4600F00DF8461C31462046FEF713
:10180C0013FF044618B132462946FFF7ADFF2046B8
:10181C0070BD034613F8012B002AFBD1181A0138AE
:10182C00704700001D000A085D000A0885000A08C0
:10183C0089000A0800000000494E54525544455294
:10184C0020414C4552542100696E74727564657266
:10185C005F6C6F67003433303032383030303434B2
:10186C003733363333333933343336333800696EE8
:10187C007472756465725F616C657274000000004F
:10188C00000000000000000083060A0889060A0810
:10189C00D9060A0897060A0885060A0800000000FF
:1018AC0000000000FD0B0A08470C0A081F0C0A0870
:1018BC00FF0B0A08270C0A082F0C0A08370C0A0819
:1018CC003F0C0A080000000000000000890C0A0808
:1018DC00790C0A087B0C0A0861707000000000008B
:1018EC0000000000510D0A085B0D0A08650D0A087E
:1018FC006F0D0A08790D0A08850D0A08910D0A0862
:10190C009D0D0A08A50D0A08AF0D0A08B90D0A08A5
:10191C0025592D256D2D25645425483A254D3A25FC
:10192C0053257A0061736374696D650000000000D3
:10193C000000000041100A08A9100A0885100A08C6
:10194C001D0E0A0855100A0871100A0863100A08BF
:10195C007F100A0843100A0847100A08000000000C
:10196C000000000039110A089F110A0877110A08B3
:10197C001D0E0A0869110A083B110A084B110A08C6
:10198C0099110A085B110A0835110A0800000000B9
:10199C00000000006F130A0865130A085B130A089D
:1019AC00CD120A084F130A0843130A0837130A0802
:1019BC002F130A0825130A081B130A08D7120A0842
:1019CC00000000009D020A08410D0A08090E0A08D1
:1019DC00BD0E0A08F10F0A082D100A0879130A081F
:0419EC0011170A08BD
:0419F00000000000F3
:1019F400881300000700000030190A0810000020B6
:101A040000000000000000000000000000000000D2
:101A140000000000000000000000000000000000C2
:101A240000000000000000000000000000000000B2
:101A340000000000000000000000000000000000A2
:101A44000000000000000000000000000000000092
:101A54000000000000000000000000000000000082
:101A6400FFFFFFFF00000102030405060708090A3F
:101A74000B0C0D0E0F101112131415161718191A3A
:081A84001B1C1D1E1F20280081
:041A8C007856341242
:04000005080A001CC9
:00000001FF
